:100000000C943E000C9448000C9448000C9448005A
:100010000C9448000C9448000C9448000C94480040
:100020000C9448000C9448000C9448000C94480030
:100030000C9448000C9448000C9448000C94480020
:100040000C9448000C9448000C9448000C94480010
:100050000C9448000C9448000C9448000C94480000
:100060000C9448000C9448000C9448000C944800F0
:100070000C9448000C9448000C94480011241FBEB6
:10008000CFEFD8E0DEBFCDBF0E9489000C948B007B
:100090000C9400008FEF84B921E032E025B94FEFD6
:1000A00089E698E1415080409040E1F700C00000AF
:1000B00035B9EFEFF9E648E1E150F0404040E1F7B3
:1000C00000C0000085E690E035B9EFE1FEE431972D
:1000D000F1F700C0000025B9EFE9FFE03197F1F733
:1000E00000C00000019781F7D9CF8FEF84B914B811
:1000F00081E04A9BFECFEFE1FEE43197F1F700C0CB
:1001000000004A9BF6CF85B9EFE9FFE03197F1F7A0
:0A011000F6CF0E944A00F894FFCFDA
:00000001FF
