:100000000C943E000C9448000C9448000C9448005A
:100010000C9448000C9448000C9448000C94480040
:100020000C9448000C9448000C9448000C94480030
:100030000C9448000C9448000C9448000C94480020
:100040000C9448000C9448000C9448000C94480010
:100050000C9448000C9448000C9448000C94480000
:100060000C9448000C9448000C9448000C944800F0
:100070000C9448000C9448000C94480011241FBEB6
:10008000CFEFD8E0DEBFCDBF0E9400010C9431025B
:100090000C940000CF92DF92EF92FF920F931F9388
:1000A000CF93DF9300D000D000D0CDB7DEB728EBE0
:1000B0003EE145E85EE369837A838B839C836981B3
:1000C0007A818B819C810E940D01162F072FD82EDB
:1000D000C92E1E821D82F12CE12C8D819E81092E5C
:1000E000000CAA0BBB0B89839A83AB83BC83BC0136
:1000F000CD010E948101212F302F4D2D5C2D698370
:100100007A838B839C8369817A818B819C810E9415
:10011000080187FF09C0C7010197F1F7AD81BE81D2
:100120001196BE83AD83D9CF26960FB6F894DEBF65
:100130000FBECDBFDF91CF911F910F91FF90EF9038
:10014000DF90CF900895CF93DF9300D000D0CDB74C
:10015000DEB721E022B969837A838B839C8369812E
:100160007A818B819C810F900F900F900F90DF917F
:10017000CF910C944A00CF93DF9300D000D0CDB73D
:10018000DEB722E022B969837A838B839C836981FD
:100190007A818B819C810F900F900F900F90DF914F
:1001A000CF910C944A00CF93DF93CAE0D0E068EB84
:1001B0007EE185E89EE30E94A30068EB7EE185E88E
:1001C0009EE30E94BB00219791F7DF91CF910895A4
:1001D0001AB84A9B14C068EB7EE185E89EE30E9452
:1001E0004A004A9B0BC04A9B07C060E070E080E871
:1001F0009FE30E94BB00F5CF12B8F3CF12B8089569
:100200008FEF81B984B987B98AB90E94E800FDCF20
:100210000E94BC0108F481E008950E9421010C9421
:10022000F7010E94F00158F00E94E90140F029F422
:100230005F3F29F00C94E00151110C942B020C94B7
:10024000E6010E94080268F39923B1F3552391F364
:10025000951B550BBB27AA2762177307840738F035
:100260009F5F5F4F220F331F441FAA1FA9F335D092
:100270000E2E3AF0E0E832D091505040E695001C46
:10028000CAF72BD0FE2F29D0660F771F881FBB1F00
:10029000261737074807AB07B0E809F0BB0B802DDE
:1002A000BF01FF2793585F4F3AF09E3F510578F00A
:1002B0000C94E0010C942B025F3FE4F3983ED4F3DE
:1002C000869577956795B795F7959F5FC9F7880FDE
:1002D000911D9695879597F90895E1E0660F771F30
:1002E000881FBB1F621773078407BA0720F0621BC1
:1002F000730B840BBA0BEE1F88F7E0950895E89412
:1003000009C097FB3EF490958095709561957F4F5D
:100310008F4F9F4F9923A9F0F92F96E9BB2793950B
:10032000F695879577956795B795F111F8CFFAF41B
:10033000BB0F11F460FF1BC06F5F7F4F8F4F9F4F4C
:1003400016C0882311F096E911C0772321F09EE8AA
:10035000872F762F05C0662371F096E8862F70E010
:1003600060E02AF09A95660F771F881FDAF7880FEA
:100370009695879597F90895990F0008550FAA0B40
:10038000E0E8FEEF16161706E807F907C0F01216A8
:100390001306E407F50798F0621B730B840B950BAB
:1003A00039F40A2661F0232B242B252B21F4089500
:1003B0000A2609F4A140A6958FEF811D811D08959D
:1003C00097F99F6780E870E060E008959FEF80EC08
:1003D000089500240A9416161706180609060895AB
:1003E00000240A9412161306140605060895092E11
:1003F0000394000C11F4882352F0BB0F40F4BF2B80
:1004000011F460FF04C06F5F7F4F8F4F9F4F0895BF
:1004100057FD9058440F551F59F05F3F71F04795B5
:10042000880F97FB991F61F09F3F79F0879508959A
:10043000121613061406551FF2CF4695F1DF08C0B9
:10044000161617061806991FF1CF869571056105D6
:1004500008940895E894BB2766277727CB0197F97E
:060460000895F894FFCF9F
:00000001FF
